:100000000A128A11D82F00308A000408840A820755
:10001000003449344E3453345434523455344D340E
:1000200045344E345434203443342E344134003477
:10003000503449344E34203449344E3443344F34F0
:10004000523452344534433454344F3400345034F1
:1000500049344E34203443344F34523452344534CE
:10006000433454343034003449344E3447345234F9
:1000700045345334413452342034503449344E34AE
:0200800000344A
:1006D4003034363432343634003483160313081677
:1006E40088160817881708108810081108000030A9
:1006F4000A128A1186230A128A1101300A128A11F7
:1007040086230A128A110800F300831203130611C8
:1007140073080A128A11A0230A128A11831203137E
:1007240086151A30F200F830F100F10B972BF20B1A
:10073400972B00008312031386110800F000701C2D
:10074400A42BA52BA92B831203130616AC2B8312FF
:1007540003130612F01CAF2BB02BB22B8616B32B4F
:100764008612701DB62BB72BB92B0617BA2B06139E
:10077400F01DBD2BBE2BC02B8617C12B8613080082
:10078400F700F501F601D92B7508770784000A12E2
:100794008A1103200A128A110A128A1114240A12D5
:1007A4008A110130F5070318F60A0030F6077508B8
:1007B400770784000A128A1103200A128A11003A68
:1007C400031DE52BE62BC62B0800F400F12B0130AA
:1007D400FF007F08F4070130FF007F08F00770086E
:1007E400840083130008F200740884000008720671
:1007F400031DFD2BFE2B052C740884000008031D2B
:10080400042C052CE92B700884000008F2007408FD
:1008140084000008F30072087302F000F101031C65
:10082400F1030800F40074080F39F2007408F03979
:10083400F3008312031306157308F1000430031048
:10084400F10CFF3E031D212C71080A128A11A0230A
:100854000A128A118312031386154230F100F10B38
:10086400312C000083120313861172080A128A11B4
:10087400A0230A128A118312031386154230F10051
:10088400F10B422C00008312031386110800831617
:1008940003130611861106128612061386130030FE
:1008A4000A128A11A0230A128A118230F500DD305F
:1008B400F400F40B5B2CF50B5B2C602C03300A1258
:1008C4008A1186230A128A112130F5007630F40049
:1008D400F40B6A2CF50B6A2C000003300A128A11FF
:1008E40086230A128A114830F5006C30F400F40BA8
:1008F400792CF50B792C000003300A128A11862317
:100904000A128A1102300A128A1186230A128A11E3
:1009140002300A128A1186230A128A1108300A1236
:100924008A1186230A128A1100300A128A11862338
:100934000A128A110C300A128A1186230A128A11A9
:1009440000300A128A1186230A128A1106300A120A
:100954008A1186230A128A110A128A1179230A1229
:100964008A110800F6007603031DB92CBA2CD72C83
:1009740074087F3EF9007908F50004300310F50C83
:10098400FF3E031DC02C7508F70079080F39F800E5
:1009940077080A128A1186230A128A1178080A1221
:1009A4008A1186230A128A11402D02307606031D0D
:1009B400DC2CDD2CFA2C7408BF3EF9007908F50014
:1009C40004300310F50CFF3E031DE32C7508F700FB
:1009D40079080F39F80077080A128A1186230A1257
:1009E4008A1178080A128A1186230A128A11402D64
:1009F40003307606031DFF2C002D1D2D7408933E35
:100A0400F9007908F50004300310F50CFF3E031DCE
:100A1400062D7508F70079080F39F80077080A12CF
:100A24008A1186230A128A1178080A128A118623E7
:100A34000A128A11402D04307606031D222D232D1F
:100A4400402D7408D33EF9007908F50004300310F2
:100A5400F50CFF3E031D292D7508F70079080F39A1
:100A6400F80077080A128A1186230A128A11780874
:100A74000A128A1186230A128A11402D08000F30A7
:100A8400831603139F04870183120313871007102F
:100A940007110A128A116F230A128A110A128A1183
:100AA40049240A128A1183120313AB01AC010230E8
:100AB400F40001300A128A11B4240A128A112C306B
:100AC4000A128A11C2230A128A11942D0A128A1157
:100AD40063260A128A1183120313A0002008031943
:100AE400742D752D942D2B08213E8400200883132A
:100AF40080002B08023EF40002300A128A11B4244A
:100B04000A128A118312031320080A128A11142468
:100B14000A128A11013083120313AB070318AC0ABB
:100B24000030AC07831203132C08803AFF00803096
:100B34007F02031D9F2D04302B02031CA22DA32D25
:100B4400682D0630FC001330FB00AD30FA00FA0BC0
:100B5400A92DFB0BA92DFC0BA92DB02D0A128A116E
:100B640079230A128A112630F00021300A128A11E0
:100B7400E7230A128A1170087104031DC22DC32DC4
:100B8400F22D831203138714071007150230F400A3
:100B940001300A128A11B4240A128A1101300A128D
:100BA4008A11C2230A128A110230F40002300A1296
:100BB4008A11B4240A128A111F300A128A11C2231C
:100BC4000A128A113330FC00BB30FB00DF30FA001C
:100BD400FA0BEA2DFB0BEA2DFC0BEA2DF12D552E19
:100BE400831203130714871007150230F400023030
:100BF4000A128A11B4240A128A1110300A128A11B4
:100C0400C2230A128A110B30FC002630FB005D302F
:100C1400FA00FA0B0B2EFB0B0B2EFC0B0B2E122ED9
:100C24008312031307110B30FC002630FB005D30E8
:100C3400FA00FA0B1B2EFB0B1B2EFC0B1B2E222E79
:100C44008312031307150B30FC002630FB005D30C4
:100C5400FA00FA0B2B2EFB0B2B2EFC0B2B2E322E19
:100C64008312031307110B30FC002630FB005D30A8
:100C7400FA00FA0B3B2EFB0B3B2EFC0B3B2E422EB9
:100C84008312031307150B30FC002630FB005D3084
:100C9400FA00FA0B4B2EFB0B4B2EFC0B4B2E522E59
:100CA400831203130711831203130710871007110C
:100CB4000A128A1179230A128A11552D0A128A11ED
:100CC400002883120313081488100811081E6B2EC1
:100CD4006C2E862E0D30F100FB30F000F00B702EE0
:100CE400F10B702E752E83120313081A7A2E7B2EA5
:100CF400752E2130F1007630F000F00B7F2EF10BD1
:100D04007F2E00003130D72F881E892E8A2EA42EE4
:100D14000D30F100FB30F000F00B8E2EF10B8E2E17
:100D2400932E83120313881A982E992E932E213012
:100D3400F1007630F000F00B9D2EF10B9D2E00009B
:100D44003430D72F081FA72EA82EC22E0D30F10045
:100D5400FB30F000F00BAC2EF10BAC2EB12E831255
:100D64000313081BB62EB72EB12E2130F1007630B6
:100D7400F000F00BBB2EF10BBB2E00003730D72F49
:100D8400881FC52EC62EE02E0D30F100FB30F0007A
:100D9400F00BCA2EF10BCA2ECF2E83120313881B1D
:100DA400D42ED52ECF2E2130F1007630F000F00B6A
:100DB400D92EF10BD92E00002A30D72F0810881411
:100DC4000811081EE62EE72E012F0D30F100FB302E
:100DD400F000F00BEB2EF10BEB2EF02E831203132D
:100DE400081AF52EF62EF02E2130F1007630F000A0
:100DF400F00BFA2EF10BFA2E00003230D72F881E9A
:100E0400042F052F1F2F0D30F100FB30F000F00BE5
:100E1400092FF10B092F0E2F83120313881A132F96
:100E2400142F0E2F2130F1007630F000F00B182F24
:100E3400F10B182F00003530D72F081F222F232F36
:100E44003D2F0D30F100FB30F000F00B272FF10B9C
:100E5400272F2C2F83120313081B312F322F2C2FF3
:100E64002130F1007630F000F00B362FF10B362FE5
:100E740000003830D72F881F402F412F5B2F0D30B3
:100E8400F100FB30F000F00B452FF10B452F4A2FFA
:100E940083120313881B4F2F502F4A2F2130F10048
:100EA4007630F000F00B542FF10B542F000030304B
:100EB400D72F081088100815081E612F622F7C2F69
:100EC4000D30F100FB30F000F00B662FF10B662FB4
:100ED4006B2F83120313081A702F712F6B2F21307D
:100EE400F1007630F000F00B752FF10B752F000038
:100EF4003330D72F881E7F2F802F9A2F0D30F1008B
:100F0400FB30F000F00B842FF10B842F892F831218
:100F14000313881A8E2F8F2F892F2130F1007630FA
:100F2400F000F00B932FF10B932F00003630D72FE6
:100F3400081F9D2F9E2FB82F0D30F100FB30F000BD
:100F4400F00BA22FF10BA22FA72F83120313081B60
:100F5400AC2FAD2FA72F2130F1007630F000F00B2D
:100F6400B12FF10BB12F00003930D72F881FBB2FC1
:100F7400BC2FD62F0D30F100FB30F000F00BC02F4A
:100F8400F10BC02FC52F83120313881BCA2FCB2F3D
:100F9400C52F2130F1007630F000F00BCF2FF10B8C
:100FA400CF2F00002330D72F003008000A128A11F7
:100FB4006A230A128A11A6000A128A116B230A12E2
:100FC4008A11A7000A128A116C230A128A11A80036
:100FD4000A128A116D230A128A11A9000A128A11AF
:100FE4006E230A128A11AA00A001A101A201A30181
:0C0FF400A401A50183010A128A11412DFD
:02400E00323F3F
:00000001FF
