:020000040000FA
:100000008316031388010710871007118312031347
:1000100088010710871007114D2026145720A000D3
:100020002008E62088000130162126145720A10060
:100030002108E62088000130162126145720A2004E
:100040002208E62088000130162126145720A3003C
:100050002308E62088000130162100302002031D0D
:100060003F2806302102031D3F2802302202031DD3
:100070003F2806302302031D3F2847200D28071480
:100080000715023016210710071188010D28871463
:1000900002301621871088010D2883160313F030D3
:1000A0008600811383120313A401A6010800003007
:1000B000A700FE30860000000608A500EE302502ED
:1000C0000319B928DE3025020319BC28BE302502E9
:1000D0000319BF287E3025020319D428FD3086007D
:1000E00000000608A500ED3025020319C228DD3006
:1000F00025020319C528BD3025020319C8287D3003
:1001000025020319D728FB30860000000608A50049
:10011000EB3025020319CB28DB3025020319CE284A
:10012000BB3025020319D1287B3025020319DA28B8
:10013000F730860000000608A500E7302502031905
:10014000E028D73025020319B628B7302502031955
:10015000E328773025020319DD28F730250203193B
:10016000B1280130A700261C080057280030A40041
:1001700008000130A40008000230A4000800033089
:10018000A40008000430A40008000530A400080002
:100190000630A40008000730A40008000830A400BE
:1001A00008000930A40008000A30A40008000B3041
:1001B000A40008000C30A40008000D30A4000800C2
:1001C0000E30A40008000F30A4000800A8000A3078
:1001D000280203184034280882073F3406345B3471
:1001E0004F3466346D347D3427347F346734A8004F
:1001F0000A3028020318BF3428088207C034F934B3
:10020000A434B034993492348234D834803498345D
:10021000A9001130AA003A30AB0000000000AB0B7F
:100220000D29AA0B0B29A90B09290800A900FA30EE
:10023000AA00FA30AB001330AC000000AC0B1D2953
:0E024000AB0B1B29AA0B1929A90B17290800C3
:02024E0000347A
:02025000003478
:02400E00323F3F
:00000001FF
