:060000000A128A11E82F2C
:1009C2008316031306168616061786170610861058
:1009D200061108003F3406345B344F3466346D34FC
:1009E2007D3407347F346F344934763440343034C4
:1009F20036343234363400347E088A007F0882006E
:100A02000A128A11FD240A128A118000840A04083B
:100A12007D0603190034FF0A0319FE0A012DF400B2
:100A22001A2D0130FF007F08F4070130FF007F0814
:100A3200F0077008840083130008F2007408840031
:100A420000087206031D262D272D2E2D7408840002
:100A52000008031D2D2D2E2D122D70088400000874
:100A6200F200740884000008F30072087302F000B8
:100A7200F101031CF10308000F30831603139F04D6
:100A820088018701831203130710871007112C08AE
:100A920088000A128A11E1240A128A11F801F90166
:100AA200D42D0A128A1173260A128A11FA007A08C0
:100AB20003195C2D5D2DD42D7808323E84007A080E
:100AC20083138000A02D8312031320088800CE2DEB
:100AD2008312031321088800CE2D831203132208E8
:100AE2008800CE2D8312031323088800CE2D831293
:100AF200031324088800CE2D8312031325088800CF
:100B0200CE2D8312031326088800CE2D83120313E1
:100B120027088800CE2D8312031328088800CE2DC3
:100B22008312031329088800CE2D831203132A0887
:100B32008800CE2D831203132B088800CE2D7A084D
:100B4200F500F6017608003A0319A82DCE2D750896
:100B5200233A03199B2D093A0319962D1A3A0319C0
:100B6200642D013A0319692D033A03196E2D013AD6
:100B72000319732D073A0319782D013A03197D2DB4
:100B8200033A0319822D013A0319872D0F3A0319EB
:100B92008C2D013A0319912DCE2D0130F80703183F
:100BA200F90A0030F9077908803AFF0080307F02A5
:100BB200031DDD2D04307802031CE02DE12D522DA2
:100BC2000B30F7002630F6005D30F500F50BE72D0F
:100BD200F60BE72DF70BE72DEE2D831203132C08EE
:100BE20088002D30F00032300A128A1110250A12C4
:100BF2008A1170087104031DFF2D002E132E83121B
:100C020003138714071507103330F700BB30F600C3
:100C1200DF30F500F50B0B2EF60B0B2EF70B0B2E20
:100C2200122E682E831203130714071587100B3038
:100C3200F7002630F6005D30F500F50B1E2EF60BA0
:100C42001E2EF70B1E2E252E8312031307110B30B7
:100C5200F7002630F6005D30F500F50B2E2EF60B70
:100C62002E2EF70B2E2E352E8312031307150B3063
:100C7200F7002630F6005D30F500F50B3E2EF60B40
:100C82003E2EF70B3E2E452E8312031307110B3017
:100C9200F7002630F6005D30F500F50B4E2EF60B10
:100CA2004E2EF70B4E2E552E8312031307150B30C3
:100CB200F7002630F6005D30F500F50B5E2EF60BE0
:100CC2005E2EF70B5E2E652E83120313071183121D
:100CD20003130710871007112C0888004F2D0A12E2
:100CE2008A11002883120313061486100611061EA9
:100CF2007B2E7C2E962E0D30F100FB30F000F00B97
:100D0200802EF10B802E852E83120313061A8A2E53
:100D12008B2E852E2130F1007630F000F00B8F2ED5
:100D2200F10B8F2E00003130E72F861E992E9A2E5E
:100D3200B42E0D30F100FB30F000F00B9E2EF10BC3
:100D42009E2EA32E83120313861AA82EA92EA32E3B
:100D52002130F1007630F000F00BAD2EF10BAD2E0C
:100D620000003430E72F061FB72EB82ED22E0D30DA
:100D7200F100FB30F000F00BBC2EF10BBC2EC12EAB
:100D820083120313061BC62EC72EC12E2130F1007B
:100D92007630F000F00BCB2EF10BCB2E000037306B
:100DA200E72F861FD52ED62EF02E0D30F100FB3008
:100DB200F000F00BDA2EF10BDA2EDF2E8312031382
:100DC200861BE42EE52EDF2E2130F1007630F00076
:100DD200F00BE92EF10BE92E00002A30E72F061066
:100DE20086140611061EF62EF72E112F0D30F10075
:100DF200FB30F000F00BFB2EF10BFB2E002F8312C9
:100E02000313061A052F062F002F2130F10076302A
:100E1200F000F00B0A2FF10B0A2F00003230E72FFF
:100E2200861E142F152F2F2F0D30F100FB30F000EE
:100E3200F00B192FF10B192F1E2F83120313861A91
:100E4200232F242F1E2F2130F1007630F000F00BDB
:100E5200282FF10B282F00003530E72F061F322FE5
:100E6200332F4D2F0D30F100FB30F000F00B372FF8
:100E7200F10B372F3C2F83120313061B412F422FF6
:100E82003C2F2130F1007630F000F00B462FF10BB1
:100E9200462F00003830E72F861F502F512F6B2F1F
:100EA2000D30F100FB30F000F00B552FF10B552FF8
:100EB2005A2F83120313861B5F2F602F5A2F213064
:100EC200F1007630F000F00B642FF10B642F00007C
:100ED2003030E72F061086100615061E712F722F6E
:100EE2008C2F0D30F100FB30F000F00B762FF10B60
:100EF200762F7B2F83120313061A802F812F7B2FCD
:100F02002130F1007630F000F00B852FF10B852FA8
:100F120000003330E72F861E8F2F902FAA2F0D301F
:100F2200F100FB30F000F00B942FF10B942F992F6E
:100F320083120313861A9E2F9F2F992F2130F100BF
:100F42007630F000F00BA32FF10BA32F0000363008
:100F5200E72F061FAD2FAE2FC82F0D30F100FB304B
:100F6200F000F00BB22FF10BB22FB72F8312031345
:100F7200061BBC2FBD2FB72F2130F1007630F000B9
:100F8200F00BC12FF10BC12F00003930E72F861F64
:100F9200CB2FCC2FE62F0D30F100FB30F000F00B01
:100FA200D02FF10BD02FD52F83120313861BDA2FEC
:100FB200DB2FD52F2130F1007630F000F00BDF2F40
:100FC200F10BDF2F00002330E72F003008008313DE
:100FD2003230FD000430FE00EB30FF002030840090
:100FE2000A128A1101250A128A11B201B301B4014F
:0E0FF200B501B601FA0183010A128A113D2DE4
:02400E00323F3F
:00000001FF
