:020000040000FA
:1000000083168601870108148312A301A401081C2A
:100010000B281720402008180728252040200728F3
:10002000230835208700240835208600080010208A
:10003000A30A23080A3C031D0800A301A40A2408FC
:100040000A3C031D0800A40108001020A303230894
:10005000FF3C031D08000930A300A4032408FF3C53
:10006000031D08000930A400080082073F3406344D
:100070005B344F3466346D347D3427347F346F34D1
:100080000D30A000FF30A100FF30A200A20B4628D7
:0A009000A10B4428A00B4228080031
:04009A0000340034FA
:02400E00323F3F
:00000001FF
